:03000000020AAB46
:0C0AAB00787FE4F6D8FD75813B020178ED
:0F0A8F003A00434E2000540020002F002020008A
:040989007FC87E00A5
:10098D00E4FDFCC3ED9FEC9E5015E4FBFA0BBB00A0
:0F099D00010AEB647B4A70F50DBD00010C80E48C
:0109AC002228
:1002CB00E4FD7F04120A3FAE14AF157C007D0A12C9
:1002DB00062C120A0CAE14AF157C007D0A12062CEC
:1002EB00AE04AF05120A0C7BFF7A0A798F120A6AE9
:1002FB00AE0AAF0B7C007D0A12062C120A0CAE0A5A
:10030B00AF0B7C007D0A12062CAE04AF05120A0C53
:10031B007BFF7A0A798F120A6AAE08AF097C007DDF
:10032B000A12062C120A0CAE08AF097C007D0A12C9
:10033B00062CAE04AF05120A0C7D017F01120A3F99
:10034B00D3E5139401E51294007BFF50067A0A79EA
:10035B009180147A0A7995120A6AAF13AE12120AB7
:10036B000C7BFF7A0A7997120A6AAE0CAF0D7C00F0
:10037B007D0A12062C120A0CAE0CAF0D7C007D0A06
:10038B0012062CAE04AF05120A0C7BFF7A0A799980
:10039B00120A6AAE0EAF0F7C007D0A12062C120AEF
:1003AB000CAE0EAF0F7C007D0A12062CAE04AF050F
:1003BB00120A0C7BFF7A0A7999120A6A7F027E0075
:1003CB00120A0CE4FFFE120A0CAE10AF117C007D7A
:1003DB000A12062C120A0CAE10AF117C007D0A1209
:0903EB00062CAE04AF05020A0C59
:0808F100AB2BAD2AAF2FAE2E98
:1008F9008E328F338D348B35AD35AF34120A3F7B51
:10090900FF7A0A7997120A6A7F647E0012098DAD0F
:1009190035AF34120A3FAF33AE32120A0C7F647E10
:040929000002098D32
:0806CB008B278A2889298D2A5A
:1006D300120681FBAAF07C007D0AFFAE0212062CF3
:1006E3008E2E8F2F7C007D0AAF03AE0212062C8C58
:1006F300308D313097061208F12096F73096292075
:100703009708052FE52F7002052EAE2CAF2D7C0028
:100713007D0A12062CD3E52F9FE52E9E4005E4F5B6
:100723002EF52F1208F180D4120989309645AE2E8A
:10073300AF2F7C007D0A12061AE5312FFFE5303E0C
:10074300FED3EF952DEE952C500AE5319409E53053
:1007530094004005E4F530F5312097080531E53183
:1007630070020530E52A04FDAB2BAF31AE30120821
:10077300F980B8AE2EAF2F7C007D0A12061AE53140
:100783002FFFE5303EAB27AA28A9298FF00206AC3C
:100793003097447D017F01120A3F7BFF7A0A799BE0
:1007A300120A6A1209897D017F01120A3FD3E513F8
:1007B3009401E51294007BFF50097A0A7991120A99
:1007C3006A800E7A0A7995120A6AAF13AE12120A78
:1007D3000C1209892096B930965F2097080513E516
:1007E3001370020512D3E5139407E5129400400633
:1007F3007512007513017D017F01120A3F7BFF7A99
:100803000A799B120A6A1209897D017F01120A3F44
:10081300D3E5139401E51294007BFF50097A0A791A
:1008230091120A6A800E7A0A7995120A6AAF13AE98
:0A08330012120A0C120989809E229D
:100502007B007A007914E4F52BF52C752D177D0408
:100512001206CB7B007A00790AE4F52BF52C752DB7
:100522003C7D071206CB7B007A007908E4F52BF5B7
:100532002C752D3C7D0A1206CB1207937B007A00A4
:10054200790C752B01752C00752D1F7D041206CBBD
:100552007B007A00790E752B01752C00752D0C7DB0
:10056200071206CB7B007A007910752B01752C00DF
:10057200752D637D0C1206CBE50E7051E50F24FE3E
:10058200601824FC600C24FD600824FE600424072B
:10059200703B75250075261E8039E5115403700ED7
:1005A200AE10AF11FC7D6412062CED4C700FAE1034
:1005B200AF117C017D9012062CED4C700875250060
:1005C20075261D800E75250075261C800675250072
:1005D20075261FD3E50D9526E50C95254006852544
:1005E2000C85260D85132D850D2E850F2F85113037
:0F05F200AB09AA08AD0BAC0AAF15AE140203F4A7
:10083D00E4F525F526E4FFFE0FBF00010EBE30F8EE
:10084D00BFD4F5752A00752B00752C0A752D007512
:10085D002E00752F08753000753100753212753305
:10086D000075340075350C75360075370075380E0A
:10087D00753900753A00753B107B007A00791412BA
:10088D0000031202CB3094163095130526E5267021
:0E089D00020525C39428E525648094804097C9
:0108AB00222A
:10017800E4F523F52412092D1208AC8070752A00C5
:10018800752B00752C0A752D00752E00752F0875B6
:1001980030007531007532127533007534007535CD
:1001A8000C75360075370075380E753900753A00CC
:1001B800753B107B007A0079141200031202CB20E1
:1001C8009606120502120989209408D2A2D2A1D259
:1001D800A080AA2095028015D374079515E495147C
:1001E8005013C3E5159411E51494005008C2A2C237
:1001F800A1C2A0808830A00C30A10930A206C2A2FA
:10020800C2A1C2A020900AD2A0752300752401C201
:10021800A220910AC2A0752300752401D2A2E52468
:100228004523600820A10512083DD2A1752100755B
:100238002214A29182905066E52245216060E4FF75
:10024800FE0FBF00010EBE30F8BFD4F5752A007549
:100258002B00752C0A752D00752E00752F0875302A
:100268000075310075321275330075340075350C20
:1002780075360075370075380E753900753A007592
:100288003B107B007A0079141200031202CB3094E1
:100298000D30950AE5221522709815218094E522E3
:1002A80045216003020185C2A1F523F52430A0058C
:1002B80012083DC2A020A20302018512083DC2A275
:0302C800020185AB
:0709AD00D2811209B4D280CF
:1009B400E4FFFEE4FDFC0DBD00010CED640C4C7085
:0C09C400F50FBF00010EEF64014E70E75C
:0109D0002204
:050AEC00D280D281223E
:0D0A9E00D2801209B4C2811209B4C28022B4
:0B0AB7001209ADA2819200C280A200D3
:010AC2002211
:0509D100120A9E7FD018
:0209D600AB076D
:1009D800E4FAEB339281D2801209B4C280EB25E0AD
:0809E800FB0ABA08ED020AB790
:080ACE00C2811209AFC28022AF
:060AE6001209ADC28022DE
:08095D00E48FF01206ACD20099
:10096500E4FBFA1209ADEB25E0FB308103430301FB
:10097500C2800ABA08ED300005120ACE8003120AB9
:03098500E6AF03D7
:01098800224C
:080AD600C2811209AFD2812296
:10092D00120AEC1209D1E4FF1209D6120A9E7FD1E8
:10093D001209D6C200120965A907120AD653017F02
:10094D001209D1E4FF1209D6AF011209D6020AD657
:100003008B278A2889291209D1E4FF1209D6120AFB
:100013009E7FD11209D6D200120965AB2DAA2EA953
:100023002F12095DAB2AAA2BA92C12095DAB27AAB3
:1000330028A92912095DAB30AA31A93212095DAB97
:1000430033AA34A93512095DAB36AA37A938E48F30
:10005300F01206ACC200120965AB39AA3AA93BE417
:100063008FF01206AC120AD6AB27AA28A9291206CA
:1000730081FB543FFFE4C4F854F0C868FEEFC45456
:100083000F48FF7C007D0A12061AEB540F2FFFEC7A
:100093003EAB278FF01206ACAB2AAA2BA92C120673
:1000A30081FB547FFFE4C4F854F0C868FEEFC454E6
:1000B3000F48FF12061AEB540F2FFFEC3EAB2A8FAB
:1000C300F01206ACAB2DAA2EA92F120681FB547F8A
:1000D300FFE4C4F854F0C868FEEFC4540F48FF129D
:1000E300061AEB540F2FFFEC3EAB2D8FF01206AC2C
:1000F300AB33AA34A935120681FB543FFFE4C4F89D
:1001030054F0C868FEEFC4540F48FF12061AEB54AC
:100113000F2FFFEC3EAB338FF01206ACAB36AA3792
:10012300A938120681FB541FFFE4C4F854F0C868D1
:10013300FEEFC4540F48FF12061AEB540F2FFFECC7
:100143003EAB368FF01206ACAB39AA3AA93B120686
:1001530081FBAAF0EAC4F854F0C868FEEBC4540F5C
:1001630048FF12061AEB540F2FFFEC3EAB39AA3AA5
:050173008FF00206AC54
:1003F4008E278F288C298D2A8B828A837C007D0A04
:10040400AF82AE8312062CEFC4F8540FC868FBEE1B
:10041400C454F048FA7C007D0AAF82AE8312062CE5
:10042400EC4AF583ED4BF582AE29AF2A7C007D0AB8
:1004340012062CEFC4F8540FC868FBEEC454F048FD
:10044400FAAE29AF2A7C007D0A12062CEC4AF52963
:10045400ED4BF52AAE27AF287C007D0A12062CEF5F
:10046400C4F8540FC868FBEEC454F048FAAE27AF82
:10047400287C007D0A12062CEC4AF527ED4BF52862
:10048400E52E75F00A84C454F0FFE52E75F00A8455
:10049400E5F04FF52EE52F75F00A84C454F0FFE51E
:1004A4002F75F00A84E5F04FF52FE53075F00A84D6
:1004B400C454F0FFE53075F00A84E5F04FF530E5FB
:1004C4002DC394014007E52DD394074003752D01F6
:1004D4001209D1E4FF1209D6AF821209D6AF2A124B
:1004E40009D6AF281209D6AF2D1209D6AF2E12099C
:0E04F400D6AF2F1209D6AF301209D6020AD6A3
:0B0AC300EF1FAC0670011E4C70F62205
:100A2700AB07AA06EB1BAE0270011A4E60097F7D69
:080A37007E00120AC380ED22CB
:030A55001209F093
:100A5800D2B27F037E00120AC3C2B27F327E000286
:020A68000AC3BF
:1009F000EF1392B4EFC3131392B5EF1313543F13D5
:0C0A000092B6EF131313541F1392B72289
:100A7D00AD07EDC4540FFF120A55AF051209F00270
:020A8D000A5805
:1008AC00E4FF1209F07F147E00120A27C2B0C2B115
:1008BC007F03120A557F057E00120A27120A587F01
:1008CC00647E00120AC3120A587F021209F0120A3F
:1008DC00587F28120A7D7F0C120A7D7F06120A7D32
:0508EC007F01020A7DFE
:100A3F00ED60047EC080027E80EE2FFF120A7D7F64
:060A4F00327E00020AC322
:080ADE00D2B0120A7DC2B02261
:100A6A00120601FF600C120ADE740129F9E43AFA4F
:030A7A0080EE22E9
:100A0C00C3EE648094804012D3EF9409EE6480941A
:0B0A1C00805007EF2430FF120ADE229A
:10060100BB010689828A83E0225002E722BBFE02F7
:09061100E32289828A83E493222A
:10061A00EF8DF0A4A8F0CF8CF0A428CE8DF0A42EF4
:02062A00FE22AE
:10062C00BC000BBE0029EF8DF084FFADF022E4CCB2
:10063C00F875F008EF2FFFEE33FEEC33FCEE9DEC7B
:10064C00984005FCEE9DFE0FD5F0E9E4CEFD22EDC1
:10065C00F8F5F0EE8420D21CFEADF075F008EF2F0B
:10066C00FFED33FD4007985006D5F0F222C398FDFC
:05067C000FD5F0EA2299
:10068100BB010A89828A83E0F5F0A3E02250068744
:10069100F009E71922BBFE07E3F5F009E319228906
:0B06A100828A83E493F5F07401932239
:1006AC00BB010A89828A83F0E5F0A3F0225006F799
:0F06BC0009A7F01922BBFE06F3E5F009F3192296
:00000001FF
